{"contracts/Index.sol":{"Index":{"abi":[{"inputs":[{"internalType":"string","name":"key","type":"string"},{"internalType":"int32[]","name":"hash","type":"int32[]"}],"name":"add","outputs":[],"stateMutability":"nonpayable","type":"function"},{"inputs":[{"internalType":"string","name":"key","type":"string"}],"name":"get","outputs":[{"internalType":"int32[]","name":"","type":"int32[]"}],"stateMutability":"view","type":"function"},{"inputs":[],"name":"getTok","outputs":[{"internalType":"string[]","name":"","type":"string[]"}],"stateMutability":"view","type":"function"}],"evm":{"bytecode":{"linkReferences":{},"object":"608060405234801561001057600080fd5b50610c31806100206000396000f3fe608060405234801561001057600080fd5b50600436106100415760003560e01c8063693ec85e14610046578063877ce43d146100765780639e2e939314610092575b600080fd5b610060600480360381019061005b91906104bb565b6100b0565b60405161006d91906105cf565b60405180910390f35b610090600480360381019061008b91906106e5565b61014c565b005b61009a6101b8565b6040516100a7919061089e565b60405180910390f35b60606000826040516100c291906108fc565b908152602001604051809103902080548060200260200160405190810160405280929190818152602001828054801561014057602002820191906000526020600020906000905b82829054906101000a900460030b60030b815260200190600401906020826003010492830192600103820291508084116101095790505b50505050509050919050565b8060008360405161015d91906108fc565b9081526020016040518091039020908051906020019061017e929190610291565b506001829080600181540180825580915050600190039060005260206000200160009091909190915090816101b39190610b29565b505050565b60606001805480602002602001604051908101604052809291908181526020016000905b828210156102885783829060005260206000200180546101fb90610942565b80601f016020809104026020016040519081016040528092919081815260200182805461022790610942565b80156102745780601f1061024957610100808354040283529160200191610274565b820191906000526020600020905b81548152906001019060200180831161025757829003601f168201915b5050505050815260200190600101906101dc565b50505050905090565b828054828255906000526020600020906007016008900481019282156103335791602002820160005b8382111561030157835183826101000a81548163ffffffff021916908360030b63ffffffff16021790555092602001926004016020816003010492830192600103026102ba565b80156103315782816101000a81549063ffffffff0219169055600401602081600301049283019260010302610301565b505b5090506103409190610344565b5090565b5b8082111561035d576000816000905550600101610345565b5090565b6000604051905090565b600080fd5b600080fd5b600080fd5b600080fd5b6000601f19601f8301169050919050565b7f4e487b7100000000000000000000000000000000000000000000000000000000600052604160045260246000fd5b6103c88261037f565b810181811067ffffffffffffffff821117156103e7576103e6610390565b5b80604052505050565b60006103fa610361565b905061040682826103bf565b919050565b600067ffffffffffffffff82111561042657610425610390565b5b61042f8261037f565b9050602081019050919050565b82818337600083830152505050565b600061045e6104598461040b565b6103f0565b90508281526020810184848401111561047a5761047961037a565b5b61048584828561043c565b509392505050565b600082601f8301126104a2576104a1610375565b5b81356104b284826020860161044b565b91505092915050565b6000602082840312156104d1576104d061036b565b5b600082013567ffffffffffffffff8111156104ef576104ee610370565b5b6104fb8482850161048d565b91505092915050565b600081519050919050565b600082825260208201905092915050565b6000819050602082019050919050565b60008160030b9050919050565b61054681610530565b82525050565b6000610558838361053d565b60208301905092915050565b6000602082019050919050565b600061057c82610504565b610586818561050f565b935061059183610520565b8060005b838110156105c25781516105a9888261054c565b97506105b483610564565b925050600181019050610595565b5085935050505092915050565b600060208201905081810360008301526105e98184610571565b905092915050565b600067ffffffffffffffff82111561060c5761060b610390565b5b602082029050602081019050919050565b600080fd5b61062b81610530565b811461063657600080fd5b50565b60008135905061064881610622565b92915050565b600061066161065c846105f1565b6103f0565b905080838252602082019050602084028301858111156106845761068361061d565b5b835b818110156106ad57806106998882610639565b845260208401935050602081019050610686565b5050509392505050565b600082601f8301126106cc576106cb610375565b5b81356106dc84826020860161064e565b91505092915050565b600080604083850312156106fc576106fb61036b565b5b600083013567ffffffffffffffff81111561071a57610719610370565b5b6107268582860161048d565b925050602083013567ffffffffffffffff81111561074757610746610370565b5b610753858286016106b7565b9150509250929050565b600081519050919050565b600082825260208201905092915050565b6000819050602082019050919050565b600081519050919050565b600082825260208201905092915050565b60005b838110156107c35780820151818401526020810190506107a8565b60008484015250505050565b60006107da82610789565b6107e48185610794565b93506107f48185602086016107a5565b6107fd8161037f565b840191505092915050565b600061081483836107cf565b905092915050565b6000602082019050919050565b60006108348261075d565b61083e8185610768565b93508360208202850161085085610779565b8060005b8581101561088c578484038952815161086d8582610808565b94506108788361081c565b925060208a01995050600181019050610854565b50829750879550505050505092915050565b600060208201905081810360008301526108b88184610829565b905092915050565b600081905092915050565b60006108d682610789565b6108e081856108c0565b93506108f08185602086016107a5565b80840191505092915050565b600061090882846108cb565b915081905092915050565b7f4e487b7100000000000000000000000000000000000000000000000000000000600052602260045260246000fd5b6000600282049050600182168061095a57607f821691505b60208210810361096d5761096c610913565b5b50919050565b60008190508160005260206000209050919050565b60006020601f8301049050919050565b600082821b905092915050565b6000600883026109d57fffffffffffffffffffffffffffffffffffffffffffffffffffffffffffffffff82610998565b6109df8683610998565b95508019841693508086168417925050509392505050565b6000819050919050565b6000819050919050565b6000610a26610a21610a1c846109f7565b610a01565b6109f7565b9050919050565b6000819050919050565b610a4083610a0b565b610a54610a4c82610a2d565b8484546109a5565b825550505050565b600090565b610a69610a5c565b610a74818484610a37565b505050565b5b81811015610a9857610a8d600082610a61565b600181019050610a7a565b5050565b601f821115610add57610aae81610973565b610ab784610988565b81016020851015610ac6578190505b610ada610ad285610988565b830182610a79565b50505b505050565b600082821c905092915050565b6000610b0060001984600802610ae2565b1980831691505092915050565b6000610b198383610aef565b9150826002028217905092915050565b610b3282610789565b67ffffffffffffffff811115610b4b57610b4a610390565b5b610b558254610942565b610b60828285610a9c565b600060209050601f831160018114610b935760008415610b81578287015190505b610b8b8582610b0d565b865550610bf3565b601f198416610ba186610973565b60005b82811015610bc957848901518255600182019150602085019450602081019050610ba4565b86831015610be65784890151610be2601f891682610aef565b8355505b6001600288020188555050505b50505050505056fea264697066735822122023b5bfe87d89a85a9a639ab001c864bb66f6f87ed049cf9d29f87ee6ef5a354d64736f6c63430008110033","opcodes":"PUSH1 0x80 PUSH1 0x40 MSTORE CALLVALUE DUP1 ISZERO PUSH2 0x10 JUMPI PUSH1 0x0 DUP1 REVERT JUMPDEST POP PUSH2 0xC31 DUP1 PUSH2 0x20 PUSH1 0x0 CODECOPY PUSH1 0x0 RETURN INVALID PUSH1 0x80 PUSH1 0x40 MSTORE CALLVALUE DUP1 ISZERO PUSH2 0x10 JUMPI PUSH1 0x0 DUP1 REVERT JUMPDEST POP PUSH1 0x4 CALLDATASIZE LT PUSH2 0x41 JUMPI PUSH1 0x0 CALLDATALOAD PUSH1 0xE0 SHR DUP1 PUSH4 0x693EC85E EQ PUSH2 0x46 JUMPI DUP1 PUSH4 0x877CE43D EQ PUSH2 0x76 JUMPI DUP1 PUSH4 0x9E2E9393 EQ PUSH2 0x92 JUMPI JUMPDEST PUSH1 0x0 DUP1 REVERT JUMPDEST PUSH2 0x60 PUSH1 0x4 DUP1 CALLDATASIZE SUB DUP2 ADD SWAP1 PUSH2 0x5B SWAP2 SWAP1 PUSH2 0x4BB JUMP JUMPDEST PUSH2 0xB0 JUMP JUMPDEST PUSH1 0x40 MLOAD PUSH2 0x6D SWAP2 SWAP1 PUSH2 0x5CF JUMP JUMPDEST PUSH1 0x40 MLOAD DUP1 SWAP2 SUB SWAP1 RETURN JUMPDEST PUSH2 0x90 PUSH1 0x4 DUP1 CALLDATASIZE SUB DUP2 ADD SWAP1 PUSH2 0x8B SWAP2 SWAP1 PUSH2 0x6E5 JUMP JUMPDEST PUSH2 0x14C JUMP JUMPDEST STOP JUMPDEST PUSH2 0x9A PUSH2 0x1B8 JUMP JUMPDEST PUSH1 0x40 MLOAD PUSH2 0xA7 SWAP2 SWAP1 PUSH2 0x89E JUMP JUMPDEST PUSH1 0x40 MLOAD DUP1 SWAP2 SUB SWAP1 RETURN JUMPDEST PUSH1 0x60 PUSH1 0x0 DUP3 PUSH1 0x40 MLOAD PUSH2 0xC2 SWAP2 SWAP1 PUSH2 0x8FC JUMP JUMPDEST SWAP1 DUP2 MSTORE PUSH1 0x20 ADD PUSH1 0x40 MLOAD DUP1 SWAP2 SUB SWAP1 KECCAK256 DUP1 SLOAD DUP1 PUSH1 0x20 MUL PUSH1 0x20 ADD PUSH1 0x40 MLOAD SWAP1 DUP2 ADD PUSH1 0x40 MSTORE DUP1 SWAP3 SWAP2 SWAP1 DUP2 DUP2 MSTORE PUSH1 0x20 ADD DUP3 DUP1 SLOAD DUP1 ISZERO PUSH2 0x140 JUMPI PUSH1 0x20 MUL DUP3 ADD SWAP2 SWAP1 PUSH1 0x0 MSTORE PUSH1 0x20 PUSH1 0x0 KECCAK256 SWAP1 PUSH1 0x0 SWAP1 JUMPDEST DUP3 DUP3 SWAP1 SLOAD SWAP1 PUSH2 0x100 EXP SWAP1 DIV PUSH1 0x3 SIGNEXTEND PUSH1 0x3 SIGNEXTEND DUP2 MSTORE PUSH1 0x20 ADD SWAP1 PUSH1 0x4 ADD SWAP1 PUSH1 0x20 DUP3 PUSH1 0x3 ADD DIV SWAP3 DUP4 ADD SWAP3 PUSH1 0x1 SUB DUP3 MUL SWAP2 POP DUP1 DUP5 GT PUSH2 0x109 JUMPI SWAP1 POP JUMPDEST POP POP POP POP POP SWAP1 POP SWAP2 SWAP1 POP JUMP JUMPDEST DUP1 PUSH1 0x0 DUP4 PUSH1 0x40 MLOAD PUSH2 0x15D SWAP2 SWAP1 PUSH2 0x8FC JUMP JUMPDEST SWAP1 DUP2 MSTORE PUSH1 0x20 ADD PUSH1 0x40 MLOAD DUP1 SWAP2 SUB SWAP1 KECCAK256 SWAP1 DUP1 MLOAD SWAP1 PUSH1 0x20 ADD SWAP1 PUSH2 0x17E SWAP3 SWAP2 SWAP1 PUSH2 0x291 JUMP JUMPDEST POP PUSH1 0x1 DUP3 SWAP1 DUP1 PUSH1 0x1 DUP2 SLOAD ADD DUP1 DUP3 SSTORE DUP1 SWAP2 POP POP PUSH1 0x1 SWAP1 SUB SWAP1 PUSH1 0x0 MSTORE PUSH1 0x20 PUSH1 0x0 KECCAK256 ADD PUSH1 0x0 SWAP1 SWAP2 SWAP1 SWAP2 SWAP1 SWAP2 POP SWAP1 DUP2 PUSH2 0x1B3 SWAP2 SWAP1 PUSH2 0xB29 JUMP JUMPDEST POP POP POP JUMP JUMPDEST PUSH1 0x60 PUSH1 0x1 DUP1 SLOAD DUP1 PUSH1 0x20 MUL PUSH1 0x20 ADD PUSH1 0x40 MLOAD SWAP1 DUP2 ADD PUSH1 0x40 MSTORE DUP1 SWAP3 SWAP2 SWAP1 DUP2 DUP2 MSTORE PUSH1 0x20 ADD PUSH1 0x0 SWAP1 JUMPDEST DUP3 DUP3 LT ISZERO PUSH2 0x288 JUMPI DUP4 DUP3 SWAP1 PUSH1 0x0 MSTORE PUSH1 0x20 PUSH1 0x0 KECCAK256 ADD DUP1 SLOAD PUSH2 0x1FB SWAP1 PUSH2 0x942 JUMP JUMPDEST DUP1 PUSH1 0x1F ADD PUSH1 0x20 DUP1 SWAP2 DIV MUL PUSH1 0x20 ADD PUSH1 0x40 MLOAD SWAP1 DUP2 ADD PUSH1 0x40 MSTORE DUP1 SWAP3 SWAP2 SWAP1 DUP2 DUP2 MSTORE PUSH1 0x20 ADD DUP3 DUP1 SLOAD PUSH2 0x227 SWAP1 PUSH2 0x942 JUMP JUMPDEST DUP1 ISZERO PUSH2 0x274 JUMPI DUP1 PUSH1 0x1F LT PUSH2 0x249 JUMPI PUSH2 0x100 DUP1 DUP4 SLOAD DIV MUL DUP4 MSTORE SWAP2 PUSH1 0x20 ADD SWAP2 PUSH2 0x274 JUMP JUMPDEST DUP3 ADD SWAP2 SWAP1 PUSH1 0x0 MSTORE PUSH1 0x20 PUSH1 0x0 KECCAK256 SWAP1 JUMPDEST DUP2 SLOAD DUP2 MSTORE SWAP1 PUSH1 0x1 ADD SWAP1 PUSH1 0x20 ADD DUP1 DUP4 GT PUSH2 0x257 JUMPI DUP3 SWAP1 SUB PUSH1 0x1F AND DUP3 ADD SWAP2 JUMPDEST POP POP POP POP POP DUP2 MSTORE PUSH1 0x20 ADD SWAP1 PUSH1 0x1 ADD SWAP1 PUSH2 0x1DC JUMP JUMPDEST POP POP POP POP SWAP1 POP SWAP1 JUMP JUMPDEST DUP3 DUP1 SLOAD DUP3 DUP3 SSTORE SWAP1 PUSH1 0x0 MSTORE PUSH1 0x20 PUSH1 0x0 KECCAK256 SWAP1 PUSH1 0x7 ADD PUSH1 0x8 SWAP1 DIV DUP2 ADD SWAP3 DUP3 ISZERO PUSH2 0x333 JUMPI SWAP2 PUSH1 0x20 MUL DUP3 ADD PUSH1 0x0 JUMPDEST DUP4 DUP3 GT ISZERO PUSH2 0x301 JUMPI DUP4 MLOAD DUP4 DUP3 PUSH2 0x100 EXP DUP2 SLOAD DUP2 PUSH4 0xFFFFFFFF MUL NOT AND SWAP1 DUP4 PUSH1 0x3 SIGNEXTEND PUSH4 0xFFFFFFFF AND MUL OR SWAP1 SSTORE POP SWAP3 PUSH1 0x20 ADD SWAP3 PUSH1 0x4 ADD PUSH1 0x20 DUP2 PUSH1 0x3 ADD DIV SWAP3 DUP4 ADD SWAP3 PUSH1 0x1 SUB MUL PUSH2 0x2BA JUMP JUMPDEST DUP1 ISZERO PUSH2 0x331 JUMPI DUP3 DUP2 PUSH2 0x100 EXP DUP2 SLOAD SWAP1 PUSH4 0xFFFFFFFF MUL NOT AND SWAP1 SSTORE PUSH1 0x4 ADD PUSH1 0x20 DUP2 PUSH1 0x3 ADD DIV SWAP3 DUP4 ADD SWAP3 PUSH1 0x1 SUB MUL PUSH2 0x301 JUMP JUMPDEST POP JUMPDEST POP SWAP1 POP PUSH2 0x340 SWAP2 SWAP1 PUSH2 0x344 JUMP JUMPDEST POP SWAP1 JUMP JUMPDEST JUMPDEST DUP1 DUP3 GT ISZERO PUSH2 0x35D JUMPI PUSH1 0x0 DUP2 PUSH1 0x0 SWAP1 SSTORE POP PUSH1 0x1 ADD PUSH2 0x345 JUMP JUMPDEST POP SWAP1 JUMP JUMPDEST PUSH1 0x0 PUSH1 0x40 MLOAD SWAP1 POP SWAP1 JUMP JUMPDEST PUSH1 0x0 DUP1 REVERT JUMPDEST PUSH1 0x0 DUP1 REVERT JUMPDEST PUSH1 0x0 DUP1 REVERT JUMPDEST PUSH1 0x0 DUP1 REVERT JUMPDEST PUSH1 0x0 PUSH1 0x1F NOT PUSH1 0x1F DUP4 ADD AND SWAP1 POP SWAP2 SWAP1 POP JUMP JUMPDEST PUSH32 0x4E487B7100000000000000000000000000000000000000000000000000000000 PUSH1 0x0 MSTORE PUSH1 0x41 PUSH1 0x4 MSTORE PUSH1 0x24 PUSH1 0x0 REVERT JUMPDEST PUSH2 0x3C8 DUP3 PUSH2 0x37F JUMP JUMPDEST DUP2 ADD DUP2 DUP2 LT PUSH8 0xFFFFFFFFFFFFFFFF DUP3 GT OR ISZERO PUSH2 0x3E7 JUMPI PUSH2 0x3E6 PUSH2 0x390 JUMP JUMPDEST JUMPDEST DUP1 PUSH1 0x40 MSTORE POP POP POP JUMP JUMPDEST PUSH1 0x0 PUSH2 0x3FA PUSH2 0x361 JUMP JUMPDEST SWAP1 POP PUSH2 0x406 DUP3 DUP3 PUSH2 0x3BF JUMP JUMPDEST SWAP2 SWAP1 POP JUMP JUMPDEST PUSH1 0x0 PUSH8 0xFFFFFFFFFFFFFFFF DUP3 GT ISZERO PUSH2 0x426 JUMPI PUSH2 0x425 PUSH2 0x390 JUMP JUMPDEST JUMPDEST PUSH2 0x42F DUP3 PUSH2 0x37F JUMP JUMPDEST SWAP1 POP PUSH1 0x20 DUP2 ADD SWAP1 POP SWAP2 SWAP1 POP JUMP JUMPDEST DUP3 DUP2 DUP4 CALLDATACOPY PUSH1 0x0 DUP4 DUP4 ADD MSTORE POP POP POP JUMP JUMPDEST PUSH1 0x0 PUSH2 0x45E PUSH2 0x459 DUP5 PUSH2 0x40B JUMP JUMPDEST PUSH2 0x3F0 JUMP JUMPDEST SWAP1 POP DUP3 DUP2 MSTORE PUSH1 0x20 DUP2 ADD DUP5 DUP5 DUP5 ADD GT ISZERO PUSH2 0x47A JUMPI PUSH2 0x479 PUSH2 0x37A JUMP JUMPDEST JUMPDEST PUSH2 0x485 DUP5 DUP3 DUP6 PUSH2 0x43C JUMP JUMPDEST POP SWAP4 SWAP3 POP POP POP JUMP JUMPDEST PUSH1 0x0 DUP3 PUSH1 0x1F DUP4 ADD SLT PUSH2 0x4A2 JUMPI PUSH2 0x4A1 PUSH2 0x375 JUMP JUMPDEST JUMPDEST DUP2 CALLDATALOAD PUSH2 0x4B2 DUP5 DUP3 PUSH1 0x20 DUP7 ADD PUSH2 0x44B JUMP JUMPDEST SWAP2 POP POP SWAP3 SWAP2 POP POP JUMP JUMPDEST PUSH1 0x0 PUSH1 0x20 DUP3 DUP5 SUB SLT ISZERO PUSH2 0x4D1 JUMPI PUSH2 0x4D0 PUSH2 0x36B JUMP JUMPDEST JUMPDEST PUSH1 0x0 DUP3 ADD CALLDATALOAD PUSH8 0xFFFFFFFFFFFFFFFF DUP2 GT ISZERO PUSH2 0x4EF JUMPI PUSH2 0x4EE PUSH2 0x370 JUMP JUMPDEST JUMPDEST PUSH2 0x4FB DUP5 DUP3 DUP6 ADD PUSH2 0x48D JUMP JUMPDEST SWAP2 POP POP SWAP3 SWAP2 POP POP JUMP JUMPDEST PUSH1 0x0 DUP2 MLOAD SWAP1 POP SWAP2 SWAP1 POP JUMP JUMPDEST PUSH1 0x0 DUP3 DUP3 MSTORE PUSH1 0x20 DUP3 ADD SWAP1 POP SWAP3 SWAP2 POP POP JUMP JUMPDEST PUSH1 0x0 DUP2 SWAP1 POP PUSH1 0x20 DUP3 ADD SWAP1 POP SWAP2 SWAP1 POP JUMP JUMPDEST PUSH1 0x0 DUP2 PUSH1 0x3 SIGNEXTEND SWAP1 POP SWAP2 SWAP1 POP JUMP JUMPDEST PUSH2 0x546 DUP2 PUSH2 0x530 JUMP JUMPDEST DUP3 MSTORE POP POP JUMP JUMPDEST PUSH1 0x0 PUSH2 0x558 DUP4 DUP4 PUSH2 0x53D JUMP JUMPDEST PUSH1 0x20 DUP4 ADD SWAP1 POP SWAP3 SWAP2 POP POP JUMP JUMPDEST PUSH1 0x0 PUSH1 0x20 DUP3 ADD SWAP1 POP SWAP2 SWAP1 POP JUMP JUMPDEST PUSH1 0x0 PUSH2 0x57C DUP3 PUSH2 0x504 JUMP JUMPDEST PUSH2 0x586 DUP2 DUP6 PUSH2 0x50F JUMP JUMPDEST SWAP4 POP PUSH2 0x591 DUP4 PUSH2 0x520 JUMP JUMPDEST DUP1 PUSH1 0x0 JUMPDEST DUP4 DUP2 LT ISZERO PUSH2 0x5C2 JUMPI DUP2 MLOAD PUSH2 0x5A9 DUP9 DUP3 PUSH2 0x54C JUMP JUMPDEST SWAP8 POP PUSH2 0x5B4 DUP4 PUSH2 0x564 JUMP JUMPDEST SWAP3 POP POP PUSH1 0x1 DUP2 ADD SWAP1 POP PUSH2 0x595 JUMP JUMPDEST POP DUP6 SWAP4 POP POP POP POP SWAP3 SWAP2 POP POP JUMP JUMPDEST PUSH1 0x0 PUSH1 0x20 DUP3 ADD SWAP1 POP DUP2 DUP2 SUB PUSH1 0x0 DUP4 ADD MSTORE PUSH2 0x5E9 DUP2 DUP5 PUSH2 0x571 JUMP JUMPDEST SWAP1 POP SWAP3 SWAP2 POP POP JUMP JUMPDEST PUSH1 0x0 PUSH8 0xFFFFFFFFFFFFFFFF DUP3 GT ISZERO PUSH2 0x60C JUMPI PUSH2 0x60B PUSH2 0x390 JUMP JUMPDEST JUMPDEST PUSH1 0x20 DUP3 MUL SWAP1 POP PUSH1 0x20 DUP2 ADD SWAP1 POP SWAP2 SWAP1 POP JUMP JUMPDEST PUSH1 0x0 DUP1 REVERT JUMPDEST PUSH2 0x62B DUP2 PUSH2 0x530 JUMP JUMPDEST DUP2 EQ PUSH2 0x636 JUMPI PUSH1 0x0 DUP1 REVERT JUMPDEST POP JUMP JUMPDEST PUSH1 0x0 DUP2 CALLDATALOAD SWAP1 POP PUSH2 0x648 DUP2 PUSH2 0x622 JUMP JUMPDEST SWAP3 SWAP2 POP POP JUMP JUMPDEST PUSH1 0x0 PUSH2 0x661 PUSH2 0x65C DUP5 PUSH2 0x5F1 JUMP JUMPDEST PUSH2 0x3F0 JUMP JUMPDEST SWAP1 POP DUP1 DUP4 DUP3 MSTORE PUSH1 0x20 DUP3 ADD SWAP1 POP PUSH1 0x20 DUP5 MUL DUP4 ADD DUP6 DUP2 GT ISZERO PUSH2 0x684 JUMPI PUSH2 0x683 PUSH2 0x61D JUMP JUMPDEST JUMPDEST DUP4 JUMPDEST DUP2 DUP2 LT ISZERO PUSH2 0x6AD JUMPI DUP1 PUSH2 0x699 DUP9 DUP3 PUSH2 0x639 JUMP JUMPDEST DUP5 MSTORE PUSH1 0x20 DUP5 ADD SWAP4 POP POP PUSH1 0x20 DUP2 ADD SWAP1 POP PUSH2 0x686 JUMP JUMPDEST POP POP POP SWAP4 SWAP3 POP POP POP JUMP JUMPDEST PUSH1 0x0 DUP3 PUSH1 0x1F DUP4 ADD SLT PUSH2 0x6CC JUMPI PUSH2 0x6CB PUSH2 0x375 JUMP JUMPDEST JUMPDEST DUP2 CALLDATALOAD PUSH2 0x6DC DUP5 DUP3 PUSH1 0x20 DUP7 ADD PUSH2 0x64E JUMP JUMPDEST SWAP2 POP POP SWAP3 SWAP2 POP POP JUMP JUMPDEST PUSH1 0x0 DUP1 PUSH1 0x40 DUP4 DUP6 SUB SLT ISZERO PUSH2 0x6FC JUMPI PUSH2 0x6FB PUSH2 0x36B JUMP JUMPDEST JUMPDEST PUSH1 0x0 DUP4 ADD CALLDATALOAD PUSH8 0xFFFFFFFFFFFFFFFF DUP2 GT ISZERO PUSH2 0x71A JUMPI PUSH2 0x719 PUSH2 0x370 JUMP JUMPDEST JUMPDEST PUSH2 0x726 DUP6 DUP3 DUP7 ADD PUSH2 0x48D JUMP JUMPDEST SWAP3 POP POP PUSH1 0x20 DUP4 ADD CALLDATALOAD PUSH8 0xFFFFFFFFFFFFFFFF DUP2 GT ISZERO PUSH2 0x747 JUMPI PUSH2 0x746 PUSH2 0x370 JUMP JUMPDEST JUMPDEST PUSH2 0x753 DUP6 DUP3 DUP7 ADD PUSH2 0x6B7 JUMP JUMPDEST SWAP2 POP POP SWAP3 POP SWAP3 SWAP1 POP JUMP JUMPDEST PUSH1 0x0 DUP2 MLOAD SWAP1 POP SWAP2 SWAP1 POP JUMP JUMPDEST PUSH1 0x0 DUP3 DUP3 MSTORE PUSH1 0x20 DUP3 ADD SWAP1 POP SWAP3 SWAP2 POP POP JUMP JUMPDEST PUSH1 0x0 DUP2 SWAP1 POP PUSH1 0x20 DUP3 ADD SWAP1 POP SWAP2 SWAP1 POP JUMP JUMPDEST PUSH1 0x0 DUP2 MLOAD SWAP1 POP SWAP2 SWAP1 POP JUMP JUMPDEST PUSH1 0x0 DUP3 DUP3 MSTORE PUSH1 0x20 DUP3 ADD SWAP1 POP SWAP3 SWAP2 POP POP JUMP JUMPDEST PUSH1 0x0 JUMPDEST DUP4 DUP2 LT ISZERO PUSH2 0x7C3 JUMPI DUP1 DUP3 ADD MLOAD DUP2 DUP5 ADD MSTORE PUSH1 0x20 DUP2 ADD SWAP1 POP PUSH2 0x7A8 JUMP JUMPDEST PUSH1 0x0 DUP5 DUP5 ADD MSTORE POP POP POP POP JUMP JUMPDEST PUSH1 0x0 PUSH2 0x7DA DUP3 PUSH2 0x789 JUMP JUMPDEST PUSH2 0x7E4 DUP2 DUP6 PUSH2 0x794 JUMP JUMPDEST SWAP4 POP PUSH2 0x7F4 DUP2 DUP6 PUSH1 0x20 DUP7 ADD PUSH2 0x7A5 JUMP JUMPDEST PUSH2 0x7FD DUP2 PUSH2 0x37F JUMP JUMPDEST DUP5 ADD SWAP2 POP POP SWAP3 SWAP2 POP POP JUMP JUMPDEST PUSH1 0x0 PUSH2 0x814 DUP4 DUP4 PUSH2 0x7CF JUMP JUMPDEST SWAP1 POP SWAP3 SWAP2 POP POP JUMP JUMPDEST PUSH1 0x0 PUSH1 0x20 DUP3 ADD SWAP1 POP SWAP2 SWAP1 POP JUMP JUMPDEST PUSH1 0x0 PUSH2 0x834 DUP3 PUSH2 0x75D JUMP JUMPDEST PUSH2 0x83E DUP2 DUP6 PUSH2 0x768 JUMP JUMPDEST SWAP4 POP DUP4 PUSH1 0x20 DUP3 MUL DUP6 ADD PUSH2 0x850 DUP6 PUSH2 0x779 JUMP JUMPDEST DUP1 PUSH1 0x0 JUMPDEST DUP6 DUP2 LT ISZERO PUSH2 0x88C JUMPI DUP5 DUP5 SUB DUP10 MSTORE DUP2 MLOAD PUSH2 0x86D DUP6 DUP3 PUSH2 0x808 JUMP JUMPDEST SWAP5 POP PUSH2 0x878 DUP4 PUSH2 0x81C JUMP JUMPDEST SWAP3 POP PUSH1 0x20 DUP11 ADD SWAP10 POP POP PUSH1 0x1 DUP2 ADD SWAP1 POP PUSH2 0x854 JUMP JUMPDEST POP DUP3 SWAP8 POP DUP8 SWAP6 POP POP POP POP POP POP SWAP3 SWAP2 POP POP JUMP JUMPDEST PUSH1 0x0 PUSH1 0x20 DUP3 ADD SWAP1 POP DUP2 DUP2 SUB PUSH1 0x0 DUP4 ADD MSTORE PUSH2 0x8B8 DUP2 DUP5 PUSH2 0x829 JUMP JUMPDEST SWAP1 POP SWAP3 SWAP2 POP POP JUMP JUMPDEST PUSH1 0x0 DUP2 SWAP1 POP SWAP3 SWAP2 POP POP JUMP JUMPDEST PUSH1 0x0 PUSH2 0x8D6 DUP3 PUSH2 0x789 JUMP JUMPDEST PUSH2 0x8E0 DUP2 DUP6 PUSH2 0x8C0 JUMP JUMPDEST SWAP4 POP PUSH2 0x8F0 DUP2 DUP6 PUSH1 0x20 DUP7 ADD PUSH2 0x7A5 JUMP JUMPDEST DUP1 DUP5 ADD SWAP2 POP POP SWAP3 SWAP2 POP POP JUMP JUMPDEST PUSH1 0x0 PUSH2 0x908 DUP3 DUP5 PUSH2 0x8CB JUMP JUMPDEST SWAP2 POP DUP2 SWAP1 POP SWAP3 SWAP2 POP POP JUMP JUMPDEST PUSH32 0x4E487B7100000000000000000000000000000000000000000000000000000000 PUSH1 0x0 MSTORE PUSH1 0x22 PUSH1 0x4 MSTORE PUSH1 0x24 PUSH1 0x0 REVERT JUMPDEST PUSH1 0x0 PUSH1 0x2 DUP3 DIV SWAP1 POP PUSH1 0x1 DUP3 AND DUP1 PUSH2 0x95A JUMPI PUSH1 0x7F DUP3 AND SWAP2 POP JUMPDEST PUSH1 0x20 DUP3 LT DUP2 SUB PUSH2 0x96D JUMPI PUSH2 0x96C PUSH2 0x913 JUMP JUMPDEST JUMPDEST POP SWAP2 SWAP1 POP JUMP JUMPDEST PUSH1 0x0 DUP2 SWAP1 POP DUP2 PUSH1 0x0 MSTORE PUSH1 0x20 PUSH1 0x0 KECCAK256 SWAP1 POP SWAP2 SWAP1 POP JUMP JUMPDEST PUSH1 0x0 PUSH1 0x20 PUSH1 0x1F DUP4 ADD DIV SWAP1 POP SWAP2 SWAP1 POP JUMP JUMPDEST PUSH1 0x0 DUP3 DUP3 SHL SWAP1 POP SWAP3 SWAP2 POP POP JUMP JUMPDEST PUSH1 0x0 PUSH1 0x8 DUP4 MUL PUSH2 0x9D5 PUSH32 0xFFFFFFFFFFFFFFFFFFFFFFFFFFFFFFFFFFFFFFFFFFFFFFFFFFFFFFFFFFFFFFFF DUP3 PUSH2 0x998 JUMP JUMPDEST PUSH2 0x9DF DUP7 DUP4 PUSH2 0x998 JUMP JUMPDEST SWAP6 POP DUP1 NOT DUP5 AND SWAP4 POP DUP1 DUP7 AND DUP5 OR SWAP3 POP POP POP SWAP4 SWAP3 POP POP POP JUMP JUMPDEST PUSH1 0x0 DUP2 SWAP1 POP SWAP2 SWAP1 POP JUMP JUMPDEST PUSH1 0x0 DUP2 SWAP1 POP SWAP2 SWAP1 POP JUMP JUMPDEST PUSH1 0x0 PUSH2 0xA26 PUSH2 0xA21 PUSH2 0xA1C DUP5 PUSH2 0x9F7 JUMP JUMPDEST PUSH2 0xA01 JUMP JUMPDEST PUSH2 0x9F7 JUMP JUMPDEST SWAP1 POP SWAP2 SWAP1 POP JUMP JUMPDEST PUSH1 0x0 DUP2 SWAP1 POP SWAP2 SWAP1 POP JUMP JUMPDEST PUSH2 0xA40 DUP4 PUSH2 0xA0B JUMP JUMPDEST PUSH2 0xA54 PUSH2 0xA4C DUP3 PUSH2 0xA2D JUMP JUMPDEST DUP5 DUP5 SLOAD PUSH2 0x9A5 JUMP JUMPDEST DUP3 SSTORE POP POP POP POP JUMP JUMPDEST PUSH1 0x0 SWAP1 JUMP JUMPDEST PUSH2 0xA69 PUSH2 0xA5C JUMP JUMPDEST PUSH2 0xA74 DUP2 DUP5 DUP5 PUSH2 0xA37 JUMP JUMPDEST POP POP POP JUMP JUMPDEST JUMPDEST DUP2 DUP2 LT ISZERO PUSH2 0xA98 JUMPI PUSH2 0xA8D PUSH1 0x0 DUP3 PUSH2 0xA61 JUMP JUMPDEST PUSH1 0x1 DUP2 ADD SWAP1 POP PUSH2 0xA7A JUMP JUMPDEST POP POP JUMP JUMPDEST PUSH1 0x1F DUP3 GT ISZERO PUSH2 0xADD JUMPI PUSH2 0xAAE DUP2 PUSH2 0x973 JUMP JUMPDEST PUSH2 0xAB7 DUP5 PUSH2 0x988 JUMP JUMPDEST DUP2 ADD PUSH1 0x20 DUP6 LT ISZERO PUSH2 0xAC6 JUMPI DUP2 SWAP1 POP JUMPDEST PUSH2 0xADA PUSH2 0xAD2 DUP6 PUSH2 0x988 JUMP JUMPDEST DUP4 ADD DUP3 PUSH2 0xA79 JUMP JUMPDEST POP POP JUMPDEST POP POP POP JUMP JUMPDEST PUSH1 0x0 DUP3 DUP3 SHR SWAP1 POP SWAP3 SWAP2 POP POP JUMP JUMPDEST PUSH1 0x0 PUSH2 0xB00 PUSH1 0x0 NOT DUP5 PUSH1 0x8 MUL PUSH2 0xAE2 JUMP JUMPDEST NOT DUP1 DUP4 AND SWAP2 POP POP SWAP3 SWAP2 POP POP JUMP JUMPDEST PUSH1 0x0 PUSH2 0xB19 DUP4 DUP4 PUSH2 0xAEF JUMP JUMPDEST SWAP2 POP DUP3 PUSH1 0x2 MUL DUP3 OR SWAP1 POP SWAP3 SWAP2 POP POP JUMP JUMPDEST PUSH2 0xB32 DUP3 PUSH2 0x789 JUMP JUMPDEST PUSH8 0xFFFFFFFFFFFFFFFF DUP2 GT ISZERO PUSH2 0xB4B JUMPI PUSH2 0xB4A PUSH2 0x390 JUMP JUMPDEST JUMPDEST PUSH2 0xB55 DUP3 SLOAD PUSH2 0x942 JUMP JUMPDEST PUSH2 0xB60 DUP3 DUP3 DUP6 PUSH2 0xA9C JUMP JUMPDEST PUSH1 0x0 PUSH1 0x20 SWAP1 POP PUSH1 0x1F DUP4 GT PUSH1 0x1 DUP2 EQ PUSH2 0xB93 JUMPI PUSH1 0x0 DUP5 ISZERO PUSH2 0xB81 JUMPI DUP3 DUP8 ADD MLOAD SWAP1 POP JUMPDEST PUSH2 0xB8B DUP6 DUP3 PUSH2 0xB0D JUMP JUMPDEST DUP7 SSTORE POP PUSH2 0xBF3 JUMP JUMPDEST PUSH1 0x1F NOT DUP5 AND PUSH2 0xBA1 DUP7 PUSH2 0x973 JUMP JUMPDEST PUSH1 0x0 JUMPDEST DUP3 DUP2 LT ISZERO PUSH2 0xBC9 JUMPI DUP5 DUP10 ADD MLOAD DUP3 SSTORE PUSH1 0x1 DUP3 ADD SWAP2 POP PUSH1 0x20 DUP6 ADD SWAP5 POP PUSH1 0x20 DUP2 ADD SWAP1 POP PUSH2 0xBA4 JUMP JUMPDEST DUP7 DUP4 LT ISZERO PUSH2 0xBE6 JUMPI DUP5 DUP10 ADD MLOAD PUSH2 0xBE2 PUSH1 0x1F DUP10 AND DUP3 PUSH2 0xAEF JUMP JUMPDEST DUP4 SSTORE POP JUMPDEST PUSH1 0x1 PUSH1 0x2 DUP9 MUL ADD DUP9 SSTORE POP POP POP JUMPDEST POP POP POP POP POP POP JUMP INVALID LOG2 PUSH5 0x6970667358 0x22 SLT KECCAK256 0x23 0xB5 0xBF 0xE8 PUSH30 0x89A85A9A639AB001C864BB66F6F87ED049CF9D29F87EE6EF5A354D64736F PUSH13 0x63430008110033000000000000 "},"methodIdentifiers":{"add(string,int32[])":"877ce43d","get(string)":"693ec85e","getTok()":"9e2e9393"}}}}}