{"contracts/Index.sol":{"Index":{"abi":[{"inputs":[{"internalType":"string","name":"key","type":"string"},{"internalType":"string[]","name":"hash","type":"string[]"}],"name":"add","outputs":[],"stateMutability":"nonpayable","type":"function"},{"inputs":[{"internalType":"string","name":"key","type":"string"}],"name":"get","outputs":[{"internalType":"string[]","name":"","type":"string[]"}],"stateMutability":"view","type":"function"},{"inputs":[],"name":"getTok","outputs":[{"internalType":"string[]","name":"","type":"string[]"}],"stateMutability":"view","type":"function"}],"evm":{"bytecode":{"linkReferences":{},"object":"608060405234801561001057600080fd5b50610b9b806100206000396000f3fe608060405234801561001057600080fd5b50600436106100415760003560e01c80635b1ed3c614610046578063693ec85e146100625780639e2e939314610092575b600080fd5b610060600480360381019061005b9190610606565b6100b0565b005b61007c6004803603810190610077919061067e565b61011c565b6040516100899190610808565b60405180910390f35b61009a610213565b6040516100a79190610808565b60405180910390f35b806000836040516100c19190610866565b908152602001604051809103902090805190602001906100e29291906102ec565b506001829080600181540180825580915050600190039060005260206000200160009091909190915090816101179190610a93565b505050565b606060008260405161012e9190610866565b9081526020016040518091039020805480602002602001604051908101604052809291908181526020016000905b8282101561020857838290600052602060002001805461017b906108ac565b80601f01602080910402602001604051908101604052809291908181526020018280546101a7906108ac565b80156101f45780601f106101c9576101008083540402835291602001916101f4565b820191906000526020600020905b8154815290600101906020018083116101d757829003601f168201915b50505050508152602001906001019061015c565b505050509050919050565b60606001805480602002602001604051908101604052809291908181526020016000905b828210156102e3578382906000526020600020018054610256906108ac565b80601f0160208091040260200160405190810160405280929190818152602001828054610282906108ac565b80156102cf5780601f106102a4576101008083540402835291602001916102cf565b820191906000526020600020905b8154815290600101906020018083116102b257829003601f168201915b505050505081526020019060010190610237565b50505050905090565b828054828255906000526020600020908101928215610334579160200282015b828111156103335782518290816103239190610a93565b509160200191906001019061030c565b5b5090506103419190610345565b5090565b5b80821115610365576000818161035c9190610369565b50600101610346565b5090565b508054610375906108ac565b6000825580601f1061038757506103a6565b601f0160209004906000526020600020908101906103a591906103a9565b5b50565b5b808211156103c25760008160009055506001016103aa565b5090565b6000604051905090565b600080fd5b600080fd5b600080fd5b600080fd5b6000601f19601f8301169050919050565b7f4e487b7100000000000000000000000000000000000000000000000000000000600052604160045260246000fd5b61042d826103e4565b810181811067ffffffffffffffff8211171561044c5761044b6103f5565b5b80604052505050565b600061045f6103c6565b905061046b8282610424565b919050565b600067ffffffffffffffff82111561048b5761048a6103f5565b5b610494826103e4565b9050602081019050919050565b82818337600083830152505050565b60006104c36104be84610470565b610455565b9050828152602081018484840111156104df576104de6103df565b5b6104ea8482856104a1565b509392505050565b600082601f830112610507576105066103da565b5b81356105178482602086016104b0565b91505092915050565b600067ffffffffffffffff82111561053b5761053a6103f5565b5b602082029050602081019050919050565b600080fd5b600061056461055f84610520565b610455565b905080838252602082019050602084028301858111156105875761058661054c565b5b835b818110156105ce57803567ffffffffffffffff8111156105ac576105ab6103da565b5b8086016105b989826104f2565b85526020850194505050602081019050610589565b5050509392505050565b600082601f8301126105ed576105ec6103da565b5b81356105fd848260208601610551565b91505092915050565b6000806040838503121561061d5761061c6103d0565b5b600083013567ffffffffffffffff81111561063b5761063a6103d5565b5b610647858286016104f2565b925050602083013567ffffffffffffffff811115610668576106676103d5565b5b610674858286016105d8565b9150509250929050565b600060208284031215610694576106936103d0565b5b600082013567ffffffffffffffff8111156106b2576106b16103d5565b5b6106be848285016104f2565b91505092915050565b600081519050919050565b600082825260208201905092915050565b6000819050602082019050919050565b600081519050919050565b600082825260208201905092915050565b60005b8381101561072d578082015181840152602081019050610712565b60008484015250505050565b6000610744826106f3565b61074e81856106fe565b935061075e81856020860161070f565b610767816103e4565b840191505092915050565b600061077e8383610739565b905092915050565b6000602082019050919050565b600061079e826106c7565b6107a881856106d2565b9350836020820285016107ba856106e3565b8060005b858110156107f657848403895281516107d78582610772565b94506107e283610786565b925060208a019950506001810190506107be565b50829750879550505050505092915050565b600060208201905081810360008301526108228184610793565b905092915050565b600081905092915050565b6000610840826106f3565b61084a818561082a565b935061085a81856020860161070f565b80840191505092915050565b60006108728284610835565b915081905092915050565b7f4e487b7100000000000000000000000000000000000000000000000000000000600052602260045260246000fd5b600060028204905060018216806108c457607f821691505b6020821081036108d7576108d661087d565b5b50919050565b60008190508160005260206000209050919050565b60006020601f8301049050919050565b600082821b905092915050565b60006008830261093f7fffffffffffffffffffffffffffffffffffffffffffffffffffffffffffffffff82610902565b6109498683610902565b95508019841693508086168417925050509392505050565b6000819050919050565b6000819050919050565b600061099061098b61098684610961565b61096b565b610961565b9050919050565b6000819050919050565b6109aa83610975565b6109be6109b682610997565b84845461090f565b825550505050565b600090565b6109d36109c6565b6109de8184846109a1565b505050565b5b81811015610a02576109f76000826109cb565b6001810190506109e4565b5050565b601f821115610a4757610a18816108dd565b610a21846108f2565b81016020851015610a30578190505b610a44610a3c856108f2565b8301826109e3565b50505b505050565b600082821c905092915050565b6000610a6a60001984600802610a4c565b1980831691505092915050565b6000610a838383610a59565b9150826002028217905092915050565b610a9c826106f3565b67ffffffffffffffff811115610ab557610ab46103f5565b5b610abf82546108ac565b610aca828285610a06565b600060209050601f831160018114610afd5760008415610aeb578287015190505b610af58582610a77565b865550610b5d565b601f198416610b0b866108dd565b60005b82811015610b3357848901518255600182019150602085019450602081019050610b0e565b86831015610b505784890151610b4c601f891682610a59565b8355505b6001600288020188555050505b50505050505056fea2646970667358221220628b6b25b376fc0d50dfd74c4b6c200f04093b6e038e0fb02728709a84fd866a64736f6c63430008110033","opcodes":"PUSH1 0x80 PUSH1 0x40 MSTORE CALLVALUE DUP1 ISZERO PUSH2 0x10 JUMPI PUSH1 0x0 DUP1 REVERT JUMPDEST POP PUSH2 0xB9B DUP1 PUSH2 0x20 PUSH1 0x0 CODECOPY PUSH1 0x0 RETURN INVALID PUSH1 0x80 PUSH1 0x40 MSTORE CALLVALUE DUP1 ISZERO PUSH2 0x10 JUMPI PUSH1 0x0 DUP1 REVERT JUMPDEST POP PUSH1 0x4 CALLDATASIZE LT PUSH2 0x41 JUMPI PUSH1 0x0 CALLDATALOAD PUSH1 0xE0 SHR DUP1 PUSH4 0x5B1ED3C6 EQ PUSH2 0x46 JUMPI DUP1 PUSH4 0x693EC85E EQ PUSH2 0x62 JUMPI DUP1 PUSH4 0x9E2E9393 EQ PUSH2 0x92 JUMPI JUMPDEST PUSH1 0x0 DUP1 REVERT JUMPDEST PUSH2 0x60 PUSH1 0x4 DUP1 CALLDATASIZE SUB DUP2 ADD SWAP1 PUSH2 0x5B SWAP2 SWAP1 PUSH2 0x606 JUMP JUMPDEST PUSH2 0xB0 JUMP JUMPDEST STOP JUMPDEST PUSH2 0x7C PUSH1 0x4 DUP1 CALLDATASIZE SUB DUP2 ADD SWAP1 PUSH2 0x77 SWAP2 SWAP1 PUSH2 0x67E JUMP JUMPDEST PUSH2 0x11C JUMP JUMPDEST PUSH1 0x40 MLOAD PUSH2 0x89 SWAP2 SWAP1 PUSH2 0x808 JUMP JUMPDEST PUSH1 0x40 MLOAD DUP1 SWAP2 SUB SWAP1 RETURN JUMPDEST PUSH2 0x9A PUSH2 0x213 JUMP JUMPDEST PUSH1 0x40 MLOAD PUSH2 0xA7 SWAP2 SWAP1 PUSH2 0x808 JUMP JUMPDEST PUSH1 0x40 MLOAD DUP1 SWAP2 SUB SWAP1 RETURN JUMPDEST DUP1 PUSH1 0x0 DUP4 PUSH1 0x40 MLOAD PUSH2 0xC1 SWAP2 SWAP1 PUSH2 0x866 JUMP JUMPDEST SWAP1 DUP2 MSTORE PUSH1 0x20 ADD PUSH1 0x40 MLOAD DUP1 SWAP2 SUB SWAP1 KECCAK256 SWAP1 DUP1 MLOAD SWAP1 PUSH1 0x20 ADD SWAP1 PUSH2 0xE2 SWAP3 SWAP2 SWAP1 PUSH2 0x2EC JUMP JUMPDEST POP PUSH1 0x1 DUP3 SWAP1 DUP1 PUSH1 0x1 DUP2 SLOAD ADD DUP1 DUP3 SSTORE DUP1 SWAP2 POP POP PUSH1 0x1 SWAP1 SUB SWAP1 PUSH1 0x0 MSTORE PUSH1 0x20 PUSH1 0x0 KECCAK256 ADD PUSH1 0x0 SWAP1 SWAP2 SWAP1 SWAP2 SWAP1 SWAP2 POP SWAP1 DUP2 PUSH2 0x117 SWAP2 SWAP1 PUSH2 0xA93 JUMP JUMPDEST POP POP POP JUMP JUMPDEST PUSH1 0x60 PUSH1 0x0 DUP3 PUSH1 0x40 MLOAD PUSH2 0x12E SWAP2 SWAP1 PUSH2 0x866 JUMP JUMPDEST SWAP1 DUP2 MSTORE PUSH1 0x20 ADD PUSH1 0x40 MLOAD DUP1 SWAP2 SUB SWAP1 KECCAK256 DUP1 SLOAD DUP1 PUSH1 0x20 MUL PUSH1 0x20 ADD PUSH1 0x40 MLOAD SWAP1 DUP2 ADD PUSH1 0x40 MSTORE DUP1 SWAP3 SWAP2 SWAP1 DUP2 DUP2 MSTORE PUSH1 0x20 ADD PUSH1 0x0 SWAP1 JUMPDEST DUP3 DUP3 LT ISZERO PUSH2 0x208 JUMPI DUP4 DUP3 SWAP1 PUSH1 0x0 MSTORE PUSH1 0x20 PUSH1 0x0 KECCAK256 ADD DUP1 SLOAD PUSH2 0x17B SWAP1 PUSH2 0x8AC JUMP JUMPDEST DUP1 PUSH1 0x1F ADD PUSH1 0x20 DUP1 SWAP2 DIV MUL PUSH1 0x20 ADD PUSH1 0x40 MLOAD SWAP1 DUP2 ADD PUSH1 0x40 MSTORE DUP1 SWAP3 SWAP2 SWAP1 DUP2 DUP2 MSTORE PUSH1 0x20 ADD DUP3 DUP1 SLOAD PUSH2 0x1A7 SWAP1 PUSH2 0x8AC JUMP JUMPDEST DUP1 ISZERO PUSH2 0x1F4 JUMPI DUP1 PUSH1 0x1F LT PUSH2 0x1C9 JUMPI PUSH2 0x100 DUP1 DUP4 SLOAD DIV MUL DUP4 MSTORE SWAP2 PUSH1 0x20 ADD SWAP2 PUSH2 0x1F4 JUMP JUMPDEST DUP3 ADD SWAP2 SWAP1 PUSH1 0x0 MSTORE PUSH1 0x20 PUSH1 0x0 KECCAK256 SWAP1 JUMPDEST DUP2 SLOAD DUP2 MSTORE SWAP1 PUSH1 0x1 ADD SWAP1 PUSH1 0x20 ADD DUP1 DUP4 GT PUSH2 0x1D7 JUMPI DUP3 SWAP1 SUB PUSH1 0x1F AND DUP3 ADD SWAP2 JUMPDEST POP POP POP POP POP DUP2 MSTORE PUSH1 0x20 ADD SWAP1 PUSH1 0x1 ADD SWAP1 PUSH2 0x15C JUMP JUMPDEST POP POP POP POP SWAP1 POP SWAP2 SWAP1 POP JUMP JUMPDEST PUSH1 0x60 PUSH1 0x1 DUP1 SLOAD DUP1 PUSH1 0x20 MUL PUSH1 0x20 ADD PUSH1 0x40 MLOAD SWAP1 DUP2 ADD PUSH1 0x40 MSTORE DUP1 SWAP3 SWAP2 SWAP1 DUP2 DUP2 MSTORE PUSH1 0x20 ADD PUSH1 0x0 SWAP1 JUMPDEST DUP3 DUP3 LT ISZERO PUSH2 0x2E3 JUMPI DUP4 DUP3 SWAP1 PUSH1 0x0 MSTORE PUSH1 0x20 PUSH1 0x0 KECCAK256 ADD DUP1 SLOAD PUSH2 0x256 SWAP1 PUSH2 0x8AC JUMP JUMPDEST DUP1 PUSH1 0x1F ADD PUSH1 0x20 DUP1 SWAP2 DIV MUL PUSH1 0x20 ADD PUSH1 0x40 MLOAD SWAP1 DUP2 ADD PUSH1 0x40 MSTORE DUP1 SWAP3 SWAP2 SWAP1 DUP2 DUP2 MSTORE PUSH1 0x20 ADD DUP3 DUP1 SLOAD PUSH2 0x282 SWAP1 PUSH2 0x8AC JUMP JUMPDEST DUP1 ISZERO PUSH2 0x2CF JUMPI DUP1 PUSH1 0x1F LT PUSH2 0x2A4 JUMPI PUSH2 0x100 DUP1 DUP4 SLOAD DIV MUL DUP4 MSTORE SWAP2 PUSH1 0x20 ADD SWAP2 PUSH2 0x2CF JUMP JUMPDEST DUP3 ADD SWAP2 SWAP1 PUSH1 0x0 MSTORE PUSH1 0x20 PUSH1 0x0 KECCAK256 SWAP1 JUMPDEST DUP2 SLOAD DUP2 MSTORE SWAP1 PUSH1 0x1 ADD SWAP1 PUSH1 0x20 ADD DUP1 DUP4 GT PUSH2 0x2B2 JUMPI DUP3 SWAP1 SUB PUSH1 0x1F AND DUP3 ADD SWAP2 JUMPDEST POP POP POP POP POP DUP2 MSTORE PUSH1 0x20 ADD SWAP1 PUSH1 0x1 ADD SWAP1 PUSH2 0x237 JUMP JUMPDEST POP POP POP POP SWAP1 POP SWAP1 JUMP JUMPDEST DUP3 DUP1 SLOAD DUP3 DUP3 SSTORE SWAP1 PUSH1 0x0 MSTORE PUSH1 0x20 PUSH1 0x0 KECCAK256 SWAP1 DUP2 ADD SWAP3 DUP3 ISZERO PUSH2 0x334 JUMPI SWAP2 PUSH1 0x20 MUL DUP3 ADD JUMPDEST DUP3 DUP2 GT ISZERO PUSH2 0x333 JUMPI DUP3 MLOAD DUP3 SWAP1 DUP2 PUSH2 0x323 SWAP2 SWAP1 PUSH2 0xA93 JUMP JUMPDEST POP SWAP2 PUSH1 0x20 ADD SWAP2 SWAP1 PUSH1 0x1 ADD SWAP1 PUSH2 0x30C JUMP JUMPDEST JUMPDEST POP SWAP1 POP PUSH2 0x341 SWAP2 SWAP1 PUSH2 0x345 JUMP JUMPDEST POP SWAP1 JUMP JUMPDEST JUMPDEST DUP1 DUP3 GT ISZERO PUSH2 0x365 JUMPI PUSH1 0x0 DUP2 DUP2 PUSH2 0x35C SWAP2 SWAP1 PUSH2 0x369 JUMP JUMPDEST POP PUSH1 0x1 ADD PUSH2 0x346 JUMP JUMPDEST POP SWAP1 JUMP JUMPDEST POP DUP1 SLOAD PUSH2 0x375 SWAP1 PUSH2 0x8AC JUMP JUMPDEST PUSH1 0x0 DUP3 SSTORE DUP1 PUSH1 0x1F LT PUSH2 0x387 JUMPI POP PUSH2 0x3A6 JUMP JUMPDEST PUSH1 0x1F ADD PUSH1 0x20 SWAP1 DIV SWAP1 PUSH1 0x0 MSTORE PUSH1 0x20 PUSH1 0x0 KECCAK256 SWAP1 DUP2 ADD SWAP1 PUSH2 0x3A5 SWAP2 SWAP1 PUSH2 0x3A9 JUMP JUMPDEST JUMPDEST POP JUMP JUMPDEST JUMPDEST DUP1 DUP3 GT ISZERO PUSH2 0x3C2 JUMPI PUSH1 0x0 DUP2 PUSH1 0x0 SWAP1 SSTORE POP PUSH1 0x1 ADD PUSH2 0x3AA JUMP JUMPDEST POP SWAP1 JUMP JUMPDEST PUSH1 0x0 PUSH1 0x40 MLOAD SWAP1 POP SWAP1 JUMP JUMPDEST PUSH1 0x0 DUP1 REVERT JUMPDEST PUSH1 0x0 DUP1 REVERT JUMPDEST PUSH1 0x0 DUP1 REVERT JUMPDEST PUSH1 0x0 DUP1 REVERT JUMPDEST PUSH1 0x0 PUSH1 0x1F NOT PUSH1 0x1F DUP4 ADD AND SWAP1 POP SWAP2 SWAP1 POP JUMP JUMPDEST PUSH32 0x4E487B7100000000000000000000000000000000000000000000000000000000 PUSH1 0x0 MSTORE PUSH1 0x41 PUSH1 0x4 MSTORE PUSH1 0x24 PUSH1 0x0 REVERT JUMPDEST PUSH2 0x42D DUP3 PUSH2 0x3E4 JUMP JUMPDEST DUP2 ADD DUP2 DUP2 LT PUSH8 0xFFFFFFFFFFFFFFFF DUP3 GT OR ISZERO PUSH2 0x44C JUMPI PUSH2 0x44B PUSH2 0x3F5 JUMP JUMPDEST JUMPDEST DUP1 PUSH1 0x40 MSTORE POP POP POP JUMP JUMPDEST PUSH1 0x0 PUSH2 0x45F PUSH2 0x3C6 JUMP JUMPDEST SWAP1 POP PUSH2 0x46B DUP3 DUP3 PUSH2 0x424 JUMP JUMPDEST SWAP2 SWAP1 POP JUMP JUMPDEST PUSH1 0x0 PUSH8 0xFFFFFFFFFFFFFFFF DUP3 GT ISZERO PUSH2 0x48B JUMPI PUSH2 0x48A PUSH2 0x3F5 JUMP JUMPDEST JUMPDEST PUSH2 0x494 DUP3 PUSH2 0x3E4 JUMP JUMPDEST SWAP1 POP PUSH1 0x20 DUP2 ADD SWAP1 POP SWAP2 SWAP1 POP JUMP JUMPDEST DUP3 DUP2 DUP4 CALLDATACOPY PUSH1 0x0 DUP4 DUP4 ADD MSTORE POP POP POP JUMP JUMPDEST PUSH1 0x0 PUSH2 0x4C3 PUSH2 0x4BE DUP5 PUSH2 0x470 JUMP JUMPDEST PUSH2 0x455 JUMP JUMPDEST SWAP1 POP DUP3 DUP2 MSTORE PUSH1 0x20 DUP2 ADD DUP5 DUP5 DUP5 ADD GT ISZERO PUSH2 0x4DF JUMPI PUSH2 0x4DE PUSH2 0x3DF JUMP JUMPDEST JUMPDEST PUSH2 0x4EA DUP5 DUP3 DUP6 PUSH2 0x4A1 JUMP JUMPDEST POP SWAP4 SWAP3 POP POP POP JUMP JUMPDEST PUSH1 0x0 DUP3 PUSH1 0x1F DUP4 ADD SLT PUSH2 0x507 JUMPI PUSH2 0x506 PUSH2 0x3DA JUMP JUMPDEST JUMPDEST DUP2 CALLDATALOAD PUSH2 0x517 DUP5 DUP3 PUSH1 0x20 DUP7 ADD PUSH2 0x4B0 JUMP JUMPDEST SWAP2 POP POP SWAP3 SWAP2 POP POP JUMP JUMPDEST PUSH1 0x0 PUSH8 0xFFFFFFFFFFFFFFFF DUP3 GT ISZERO PUSH2 0x53B JUMPI PUSH2 0x53A PUSH2 0x3F5 JUMP JUMPDEST JUMPDEST PUSH1 0x20 DUP3 MUL SWAP1 POP PUSH1 0x20 DUP2 ADD SWAP1 POP SWAP2 SWAP1 POP JUMP JUMPDEST PUSH1 0x0 DUP1 REVERT JUMPDEST PUSH1 0x0 PUSH2 0x564 PUSH2 0x55F DUP5 PUSH2 0x520 JUMP JUMPDEST PUSH2 0x455 JUMP JUMPDEST SWAP1 POP DUP1 DUP4 DUP3 MSTORE PUSH1 0x20 DUP3 ADD SWAP1 POP PUSH1 0x20 DUP5 MUL DUP4 ADD DUP6 DUP2 GT ISZERO PUSH2 0x587 JUMPI PUSH2 0x586 PUSH2 0x54C JUMP JUMPDEST JUMPDEST DUP4 JUMPDEST DUP2 DUP2 LT ISZERO PUSH2 0x5CE JUMPI DUP1 CALLDATALOAD PUSH8 0xFFFFFFFFFFFFFFFF DUP2 GT ISZERO PUSH2 0x5AC JUMPI PUSH2 0x5AB PUSH2 0x3DA JUMP JUMPDEST JUMPDEST DUP1 DUP7 ADD PUSH2 0x5B9 DUP10 DUP3 PUSH2 0x4F2 JUMP JUMPDEST DUP6 MSTORE PUSH1 0x20 DUP6 ADD SWAP5 POP POP POP PUSH1 0x20 DUP2 ADD SWAP1 POP PUSH2 0x589 JUMP JUMPDEST POP POP POP SWAP4 SWAP3 POP POP POP JUMP JUMPDEST PUSH1 0x0 DUP3 PUSH1 0x1F DUP4 ADD SLT PUSH2 0x5ED JUMPI PUSH2 0x5EC PUSH2 0x3DA JUMP JUMPDEST JUMPDEST DUP2 CALLDATALOAD PUSH2 0x5FD DUP5 DUP3 PUSH1 0x20 DUP7 ADD PUSH2 0x551 JUMP JUMPDEST SWAP2 POP POP SWAP3 SWAP2 POP POP JUMP JUMPDEST PUSH1 0x0 DUP1 PUSH1 0x40 DUP4 DUP6 SUB SLT ISZERO PUSH2 0x61D JUMPI PUSH2 0x61C PUSH2 0x3D0 JUMP JUMPDEST JUMPDEST PUSH1 0x0 DUP4 ADD CALLDATALOAD PUSH8 0xFFFFFFFFFFFFFFFF DUP2 GT ISZERO PUSH2 0x63B JUMPI PUSH2 0x63A PUSH2 0x3D5 JUMP JUMPDEST JUMPDEST PUSH2 0x647 DUP6 DUP3 DUP7 ADD PUSH2 0x4F2 JUMP JUMPDEST SWAP3 POP POP PUSH1 0x20 DUP4 ADD CALLDATALOAD PUSH8 0xFFFFFFFFFFFFFFFF DUP2 GT ISZERO PUSH2 0x668 JUMPI PUSH2 0x667 PUSH2 0x3D5 JUMP JUMPDEST JUMPDEST PUSH2 0x674 DUP6 DUP3 DUP7 ADD PUSH2 0x5D8 JUMP JUMPDEST SWAP2 POP POP SWAP3 POP SWAP3 SWAP1 POP JUMP JUMPDEST PUSH1 0x0 PUSH1 0x20 DUP3 DUP5 SUB SLT ISZERO PUSH2 0x694 JUMPI PUSH2 0x693 PUSH2 0x3D0 JUMP JUMPDEST JUMPDEST PUSH1 0x0 DUP3 ADD CALLDATALOAD PUSH8 0xFFFFFFFFFFFFFFFF DUP2 GT ISZERO PUSH2 0x6B2 JUMPI PUSH2 0x6B1 PUSH2 0x3D5 JUMP JUMPDEST JUMPDEST PUSH2 0x6BE DUP5 DUP3 DUP6 ADD PUSH2 0x4F2 JUMP JUMPDEST SWAP2 POP POP SWAP3 SWAP2 POP POP JUMP JUMPDEST PUSH1 0x0 DUP2 MLOAD SWAP1 POP SWAP2 SWAP1 POP JUMP JUMPDEST PUSH1 0x0 DUP3 DUP3 MSTORE PUSH1 0x20 DUP3 ADD SWAP1 POP SWAP3 SWAP2 POP POP JUMP JUMPDEST PUSH1 0x0 DUP2 SWAP1 POP PUSH1 0x20 DUP3 ADD SWAP1 POP SWAP2 SWAP1 POP JUMP JUMPDEST PUSH1 0x0 DUP2 MLOAD SWAP1 POP SWAP2 SWAP1 POP JUMP JUMPDEST PUSH1 0x0 DUP3 DUP3 MSTORE PUSH1 0x20 DUP3 ADD SWAP1 POP SWAP3 SWAP2 POP POP JUMP JUMPDEST PUSH1 0x0 JUMPDEST DUP4 DUP2 LT ISZERO PUSH2 0x72D JUMPI DUP1 DUP3 ADD MLOAD DUP2 DUP5 ADD MSTORE PUSH1 0x20 DUP2 ADD SWAP1 POP PUSH2 0x712 JUMP JUMPDEST PUSH1 0x0 DUP5 DUP5 ADD MSTORE POP POP POP POP JUMP JUMPDEST PUSH1 0x0 PUSH2 0x744 DUP3 PUSH2 0x6F3 JUMP JUMPDEST PUSH2 0x74E DUP2 DUP6 PUSH2 0x6FE JUMP JUMPDEST SWAP4 POP PUSH2 0x75E DUP2 DUP6 PUSH1 0x20 DUP7 ADD PUSH2 0x70F JUMP JUMPDEST PUSH2 0x767 DUP2 PUSH2 0x3E4 JUMP JUMPDEST DUP5 ADD SWAP2 POP POP SWAP3 SWAP2 POP POP JUMP JUMPDEST PUSH1 0x0 PUSH2 0x77E DUP4 DUP4 PUSH2 0x739 JUMP JUMPDEST SWAP1 POP SWAP3 SWAP2 POP POP JUMP JUMPDEST PUSH1 0x0 PUSH1 0x20 DUP3 ADD SWAP1 POP SWAP2 SWAP1 POP JUMP JUMPDEST PUSH1 0x0 PUSH2 0x79E DUP3 PUSH2 0x6C7 JUMP JUMPDEST PUSH2 0x7A8 DUP2 DUP6 PUSH2 0x6D2 JUMP JUMPDEST SWAP4 POP DUP4 PUSH1 0x20 DUP3 MUL DUP6 ADD PUSH2 0x7BA DUP6 PUSH2 0x6E3 JUMP JUMPDEST DUP1 PUSH1 0x0 JUMPDEST DUP6 DUP2 LT ISZERO PUSH2 0x7F6 JUMPI DUP5 DUP5 SUB DUP10 MSTORE DUP2 MLOAD PUSH2 0x7D7 DUP6 DUP3 PUSH2 0x772 JUMP JUMPDEST SWAP5 POP PUSH2 0x7E2 DUP4 PUSH2 0x786 JUMP JUMPDEST SWAP3 POP PUSH1 0x20 DUP11 ADD SWAP10 POP POP PUSH1 0x1 DUP2 ADD SWAP1 POP PUSH2 0x7BE JUMP JUMPDEST POP DUP3 SWAP8 POP DUP8 SWAP6 POP POP POP POP POP POP SWAP3 SWAP2 POP POP JUMP JUMPDEST PUSH1 0x0 PUSH1 0x20 DUP3 ADD SWAP1 POP DUP2 DUP2 SUB PUSH1 0x0 DUP4 ADD MSTORE PUSH2 0x822 DUP2 DUP5 PUSH2 0x793 JUMP JUMPDEST SWAP1 POP SWAP3 SWAP2 POP POP JUMP JUMPDEST PUSH1 0x0 DUP2 SWAP1 POP SWAP3 SWAP2 POP POP JUMP JUMPDEST PUSH1 0x0 PUSH2 0x840 DUP3 PUSH2 0x6F3 JUMP JUMPDEST PUSH2 0x84A DUP2 DUP6 PUSH2 0x82A JUMP JUMPDEST SWAP4 POP PUSH2 0x85A DUP2 DUP6 PUSH1 0x20 DUP7 ADD PUSH2 0x70F JUMP JUMPDEST DUP1 DUP5 ADD SWAP2 POP POP SWAP3 SWAP2 POP POP JUMP JUMPDEST PUSH1 0x0 PUSH2 0x872 DUP3 DUP5 PUSH2 0x835 JUMP JUMPDEST SWAP2 POP DUP2 SWAP1 POP SWAP3 SWAP2 POP POP JUMP JUMPDEST PUSH32 0x4E487B7100000000000000000000000000000000000000000000000000000000 PUSH1 0x0 MSTORE PUSH1 0x22 PUSH1 0x4 MSTORE PUSH1 0x24 PUSH1 0x0 REVERT JUMPDEST PUSH1 0x0 PUSH1 0x2 DUP3 DIV SWAP1 POP PUSH1 0x1 DUP3 AND DUP1 PUSH2 0x8C4 JUMPI PUSH1 0x7F DUP3 AND SWAP2 POP JUMPDEST PUSH1 0x20 DUP3 LT DUP2 SUB PUSH2 0x8D7 JUMPI PUSH2 0x8D6 PUSH2 0x87D JUMP JUMPDEST JUMPDEST POP SWAP2 SWAP1 POP JUMP JUMPDEST PUSH1 0x0 DUP2 SWAP1 POP DUP2 PUSH1 0x0 MSTORE PUSH1 0x20 PUSH1 0x0 KECCAK256 SWAP1 POP SWAP2 SWAP1 POP JUMP JUMPDEST PUSH1 0x0 PUSH1 0x20 PUSH1 0x1F DUP4 ADD DIV SWAP1 POP SWAP2 SWAP1 POP JUMP JUMPDEST PUSH1 0x0 DUP3 DUP3 SHL SWAP1 POP SWAP3 SWAP2 POP POP JUMP JUMPDEST PUSH1 0x0 PUSH1 0x8 DUP4 MUL PUSH2 0x93F PUSH32 0xFFFFFFFFFFFFFFFFFFFFFFFFFFFFFFFFFFFFFFFFFFFFFFFFFFFFFFFFFFFFFFFF DUP3 PUSH2 0x902 JUMP JUMPDEST PUSH2 0x949 DUP7 DUP4 PUSH2 0x902 JUMP JUMPDEST SWAP6 POP DUP1 NOT DUP5 AND SWAP4 POP DUP1 DUP7 AND DUP5 OR SWAP3 POP POP POP SWAP4 SWAP3 POP POP POP JUMP JUMPDEST PUSH1 0x0 DUP2 SWAP1 POP SWAP2 SWAP1 POP JUMP JUMPDEST PUSH1 0x0 DUP2 SWAP1 POP SWAP2 SWAP1 POP JUMP JUMPDEST PUSH1 0x0 PUSH2 0x990 PUSH2 0x98B PUSH2 0x986 DUP5 PUSH2 0x961 JUMP JUMPDEST PUSH2 0x96B JUMP JUMPDEST PUSH2 0x961 JUMP JUMPDEST SWAP1 POP SWAP2 SWAP1 POP JUMP JUMPDEST PUSH1 0x0 DUP2 SWAP1 POP SWAP2 SWAP1 POP JUMP JUMPDEST PUSH2 0x9AA DUP4 PUSH2 0x975 JUMP JUMPDEST PUSH2 0x9BE PUSH2 0x9B6 DUP3 PUSH2 0x997 JUMP JUMPDEST DUP5 DUP5 SLOAD PUSH2 0x90F JUMP JUMPDEST DUP3 SSTORE POP POP POP POP JUMP JUMPDEST PUSH1 0x0 SWAP1 JUMP JUMPDEST PUSH2 0x9D3 PUSH2 0x9C6 JUMP JUMPDEST PUSH2 0x9DE DUP2 DUP5 DUP5 PUSH2 0x9A1 JUMP JUMPDEST POP POP POP JUMP JUMPDEST JUMPDEST DUP2 DUP2 LT ISZERO PUSH2 0xA02 JUMPI PUSH2 0x9F7 PUSH1 0x0 DUP3 PUSH2 0x9CB JUMP JUMPDEST PUSH1 0x1 DUP2 ADD SWAP1 POP PUSH2 0x9E4 JUMP JUMPDEST POP POP JUMP JUMPDEST PUSH1 0x1F DUP3 GT ISZERO PUSH2 0xA47 JUMPI PUSH2 0xA18 DUP2 PUSH2 0x8DD JUMP JUMPDEST PUSH2 0xA21 DUP5 PUSH2 0x8F2 JUMP JUMPDEST DUP2 ADD PUSH1 0x20 DUP6 LT ISZERO PUSH2 0xA30 JUMPI DUP2 SWAP1 POP JUMPDEST PUSH2 0xA44 PUSH2 0xA3C DUP6 PUSH2 0x8F2 JUMP JUMPDEST DUP4 ADD DUP3 PUSH2 0x9E3 JUMP JUMPDEST POP POP JUMPDEST POP POP POP JUMP JUMPDEST PUSH1 0x0 DUP3 DUP3 SHR SWAP1 POP SWAP3 SWAP2 POP POP JUMP JUMPDEST PUSH1 0x0 PUSH2 0xA6A PUSH1 0x0 NOT DUP5 PUSH1 0x8 MUL PUSH2 0xA4C JUMP JUMPDEST NOT DUP1 DUP4 AND SWAP2 POP POP SWAP3 SWAP2 POP POP JUMP JUMPDEST PUSH1 0x0 PUSH2 0xA83 DUP4 DUP4 PUSH2 0xA59 JUMP JUMPDEST SWAP2 POP DUP3 PUSH1 0x2 MUL DUP3 OR SWAP1 POP SWAP3 SWAP2 POP POP JUMP JUMPDEST PUSH2 0xA9C DUP3 PUSH2 0x6F3 JUMP JUMPDEST PUSH8 0xFFFFFFFFFFFFFFFF DUP2 GT ISZERO PUSH2 0xAB5 JUMPI PUSH2 0xAB4 PUSH2 0x3F5 JUMP JUMPDEST JUMPDEST PUSH2 0xABF DUP3 SLOAD PUSH2 0x8AC JUMP JUMPDEST PUSH2 0xACA DUP3 DUP3 DUP6 PUSH2 0xA06 JUMP JUMPDEST PUSH1 0x0 PUSH1 0x20 SWAP1 POP PUSH1 0x1F DUP4 GT PUSH1 0x1 DUP2 EQ PUSH2 0xAFD JUMPI PUSH1 0x0 DUP5 ISZERO PUSH2 0xAEB JUMPI DUP3 DUP8 ADD MLOAD SWAP1 POP JUMPDEST PUSH2 0xAF5 DUP6 DUP3 PUSH2 0xA77 JUMP JUMPDEST DUP7 SSTORE POP PUSH2 0xB5D JUMP JUMPDEST PUSH1 0x1F NOT DUP5 AND PUSH2 0xB0B DUP7 PUSH2 0x8DD JUMP JUMPDEST PUSH1 0x0 JUMPDEST DUP3 DUP2 LT ISZERO PUSH2 0xB33 JUMPI DUP5 DUP10 ADD MLOAD DUP3 SSTORE PUSH1 0x1 DUP3 ADD SWAP2 POP PUSH1 0x20 DUP6 ADD SWAP5 POP PUSH1 0x20 DUP2 ADD SWAP1 POP PUSH2 0xB0E JUMP JUMPDEST DUP7 DUP4 LT ISZERO PUSH2 0xB50 JUMPI DUP5 DUP10 ADD MLOAD PUSH2 0xB4C PUSH1 0x1F DUP10 AND DUP3 PUSH2 0xA59 JUMP JUMPDEST DUP4 SSTORE POP JUMPDEST PUSH1 0x1 PUSH1 0x2 DUP9 MUL ADD DUP9 SSTORE POP POP POP JUMPDEST POP POP POP POP POP POP JUMP INVALID LOG2 PUSH5 0x6970667358 0x22 SLT KECCAK256 PUSH3 0x8B6B25 0xB3 PUSH23 0xFC0D50DFD74C4B6C200F04093B6E038E0FB02728709A84 REVERT DUP7 PUSH11 0x64736F6C63430008110033 "},"methodIdentifiers":{"add(string,string[])":"5b1ed3c6","get(string)":"693ec85e","getTok()":"9e2e9393"}}}}}