{
  "_format": "hh-sol-artifact-1",
  "contractName": "Index",
  "sourceName": "contracts/Index.sol",
  "abi": [
    {
      "inputs": [
        {
          "internalType": "uint256",
          "name": "id",
          "type": "uint256"
        },
        {
          "internalType": "string",
          "name": "hash",
          "type": "string"
        }
      ],
      "name": "add",
      "outputs": [],
      "stateMutability": "nonpayable",
      "type": "function"
    },
    {
      "inputs": [
        {
          "internalType": "uint256",
          "name": "key",
          "type": "uint256"
        }
      ],
      "name": "get",
      "outputs": [
        {
          "internalType": "string",
          "name": "",
          "type": "string"
        }
      ],
      "stateMutability": "view",
      "type": "function"
    },
    {
      "inputs": [],
      "name": "getInvIdx",
      "outputs": [
        {
          "internalType": "string",
          "name": "",
          "type": "string"
        }
      ],
      "stateMutability": "view",
      "type": "function"
    },
    {
      "inputs": [],
      "name": "getTok",
      "outputs": [
        {
          "internalType": "uint256[]",
          "name": "",
          "type": "uint256[]"
        }
      ],
      "stateMutability": "view",
      "type": "function"
    },
    {
      "inputs": [
        {
          "internalType": "string",
          "name": "hash",
          "type": "string"
        }
      ],
      "name": "storeInvIdx",
      "outputs": [],
      "stateMutability": "nonpayable",
      "type": "function"
    }
  ],
  "bytecode": "0x608060405234801561001057600080fd5b506109e5806100206000396000f3fe608060405234801561001057600080fd5b50600436106100575760003560e01c80631ae8276d1461005c5780637230bce81461007a5780639507d39a146100965780639e2e9393146100c6578063e088ceb6146100e4575b600080fd5b610064610100565b604051610071919061037e565b60405180910390f35b610094600480360381019061008f919061051f565b610192565b005b6100b060048036038101906100ab919061057b565b6101df565b6040516100bd919061037e565b60405180910390f35b6100ce610283565b6040516100db9190610666565b60405180910390f35b6100fe60048036038101906100f99190610688565b6102db565b005b60606002805461010f90610700565b80601f016020809104026020016040519081016040528092919081815260200182805461013b90610700565b80156101885780601f1061015d57610100808354040283529160200191610188565b820191906000526020600020905b81548152906001019060200180831161016b57829003601f168201915b5050505050905090565b8060008084815260200190815260200160002090816101b191906108dd565b5060018290806001815401808255809150506001900390600052602060002001600090919091909150555050565b606060008083815260200190815260200160002080546101fe90610700565b80601f016020809104026020016040519081016040528092919081815260200182805461022a90610700565b80156102775780601f1061024c57610100808354040283529160200191610277565b820191906000526020600020905b81548152906001019060200180831161025a57829003601f168201915b50505050509050919050565b606060018054806020026020016040519081016040528092919081815260200182805480156102d157602002820191906000526020600020905b8154815260200190600101908083116102bd575b5050505050905090565b80600290816102ea91906108dd565b5050565b600081519050919050565b600082825260208201905092915050565b60005b8381101561032857808201518184015260208101905061030d565b60008484015250505050565b6000601f19601f8301169050919050565b6000610350826102ee565b61035a81856102f9565b935061036a81856020860161030a565b61037381610334565b840191505092915050565b600060208201905081810360008301526103988184610345565b905092915050565b6000604051905090565b600080fd5b600080fd5b6000819050919050565b6103c7816103b4565b81146103d257600080fd5b50565b6000813590506103e4816103be565b92915050565b600080fd5b600080fd5b7f4e487b7100000000000000000000000000000000000000000000000000000000600052604160045260246000fd5b61042c82610334565b810181811067ffffffffffffffff8211171561044b5761044a6103f4565b5b80604052505050565b600061045e6103a0565b905061046a8282610423565b919050565b600067ffffffffffffffff82111561048a576104896103f4565b5b61049382610334565b9050602081019050919050565b82818337600083830152505050565b60006104c26104bd8461046f565b610454565b9050828152602081018484840111156104de576104dd6103ef565b5b6104e98482856104a0565b509392505050565b600082601f830112610506576105056103ea565b5b81356105168482602086016104af565b91505092915050565b60008060408385031215610536576105356103aa565b5b6000610544858286016103d5565b925050602083013567ffffffffffffffff811115610565576105646103af565b5b610571858286016104f1565b9150509250929050565b600060208284031215610591576105906103aa565b5b600061059f848285016103d5565b91505092915050565b600081519050919050565b600082825260208201905092915050565b6000819050602082019050919050565b6105dd816103b4565b82525050565b60006105ef83836105d4565b60208301905092915050565b6000602082019050919050565b6000610613826105a8565b61061d81856105b3565b9350610628836105c4565b8060005b8381101561065957815161064088826105e3565b975061064b836105fb565b92505060018101905061062c565b5085935050505092915050565b600060208201905081810360008301526106808184610608565b905092915050565b60006020828403121561069e5761069d6103aa565b5b600082013567ffffffffffffffff8111156106bc576106bb6103af565b5b6106c8848285016104f1565b91505092915050565b7f4e487b7100000000000000000000000000000000000000000000000000000000600052602260045260246000fd5b6000600282049050600182168061071857607f821691505b60208210810361072b5761072a6106d1565b5b50919050565b60008190508160005260206000209050919050565b60006020601f8301049050919050565b600082821b905092915050565b6000600883026107937fffffffffffffffffffffffffffffffffffffffffffffffffffffffffffffffff82610756565b61079d8683610756565b95508019841693508086168417925050509392505050565b6000819050919050565b60006107da6107d56107d0846103b4565b6107b5565b6103b4565b9050919050565b6000819050919050565b6107f4836107bf565b610808610800826107e1565b848454610763565b825550505050565b600090565b61081d610810565b6108288184846107eb565b505050565b5b8181101561084c57610841600082610815565b60018101905061082e565b5050565b601f8211156108915761086281610731565b61086b84610746565b8101602085101561087a578190505b61088e61088685610746565b83018261082d565b50505b505050565b600082821c905092915050565b60006108b460001984600802610896565b1980831691505092915050565b60006108cd83836108a3565b9150826002028217905092915050565b6108e6826102ee565b67ffffffffffffffff8111156108ff576108fe6103f4565b5b6109098254610700565b610914828285610850565b600060209050601f8311600181146109475760008415610935578287015190505b61093f85826108c1565b8655506109a7565b601f19841661095586610731565b60005b8281101561097d57848901518255600182019150602085019450602081019050610958565b8683101561099a5784890151610996601f8916826108a3565b8355505b6001600288020188555050505b50505050505056fea2646970667358221220151be56378952b747e5ea0f41f73d97824273f56afcef75cafbc7353e9b7c3ca64736f6c63430008110033",
  "linkReferences": {},
  "deployedLinkReferences": {}
}