{
  "_format": "hh-sol-artifact-1",
  "contractName": "Index",
  "sourceName": "contracts/Index.sol",
  "abi": [
    {
      "inputs": [
        {
          "internalType": "string",
          "name": "key",
          "type": "string"
        },
        {
          "internalType": "int32[]",
          "name": "hash",
          "type": "int32[]"
        }
      ],
      "name": "add",
      "outputs": [],
      "stateMutability": "nonpayable",
      "type": "function"
    },
    {
      "inputs": [
        {
          "internalType": "string",
          "name": "key",
          "type": "string"
        }
      ],
      "name": "get",
      "outputs": [
        {
          "internalType": "int32[]",
          "name": "",
          "type": "int32[]"
        }
      ],
      "stateMutability": "view",
      "type": "function"
    },
    {
      "inputs": [],
      "name": "getTok",
      "outputs": [
        {
          "internalType": "string[]",
          "name": "",
          "type": "string[]"
        }
      ],
      "stateMutability": "view",
      "type": "function"
    }
  ],
  "bytecode": "0x608060405234801561001057600080fd5b50610c31806100206000396000f3fe608060405234801561001057600080fd5b50600436106100415760003560e01c8063693ec85e14610046578063877ce43d146100765780639e2e939314610092575b600080fd5b610060600480360381019061005b91906104bb565b6100b0565b60405161006d91906105cf565b60405180910390f35b610090600480360381019061008b91906106e5565b61014c565b005b61009a6101b8565b6040516100a7919061089e565b60405180910390f35b60606000826040516100c291906108fc565b908152602001604051809103902080548060200260200160405190810160405280929190818152602001828054801561014057602002820191906000526020600020906000905b82829054906101000a900460030b60030b815260200190600401906020826003010492830192600103820291508084116101095790505b50505050509050919050565b8060008360405161015d91906108fc565b9081526020016040518091039020908051906020019061017e929190610291565b506001829080600181540180825580915050600190039060005260206000200160009091909190915090816101b39190610b29565b505050565b60606001805480602002602001604051908101604052809291908181526020016000905b828210156102885783829060005260206000200180546101fb90610942565b80601f016020809104026020016040519081016040528092919081815260200182805461022790610942565b80156102745780601f1061024957610100808354040283529160200191610274565b820191906000526020600020905b81548152906001019060200180831161025757829003601f168201915b5050505050815260200190600101906101dc565b50505050905090565b828054828255906000526020600020906007016008900481019282156103335791602002820160005b8382111561030157835183826101000a81548163ffffffff021916908360030b63ffffffff16021790555092602001926004016020816003010492830192600103026102ba565b80156103315782816101000a81549063ffffffff0219169055600401602081600301049283019260010302610301565b505b5090506103409190610344565b5090565b5b8082111561035d576000816000905550600101610345565b5090565b6000604051905090565b600080fd5b600080fd5b600080fd5b600080fd5b6000601f19601f8301169050919050565b7f4e487b7100000000000000000000000000000000000000000000000000000000600052604160045260246000fd5b6103c88261037f565b810181811067ffffffffffffffff821117156103e7576103e6610390565b5b80604052505050565b60006103fa610361565b905061040682826103bf565b919050565b600067ffffffffffffffff82111561042657610425610390565b5b61042f8261037f565b9050602081019050919050565b82818337600083830152505050565b600061045e6104598461040b565b6103f0565b90508281526020810184848401111561047a5761047961037a565b5b61048584828561043c565b509392505050565b600082601f8301126104a2576104a1610375565b5b81356104b284826020860161044b565b91505092915050565b6000602082840312156104d1576104d061036b565b5b600082013567ffffffffffffffff8111156104ef576104ee610370565b5b6104fb8482850161048d565b91505092915050565b600081519050919050565b600082825260208201905092915050565b6000819050602082019050919050565b60008160030b9050919050565b61054681610530565b82525050565b6000610558838361053d565b60208301905092915050565b6000602082019050919050565b600061057c82610504565b610586818561050f565b935061059183610520565b8060005b838110156105c25781516105a9888261054c565b97506105b483610564565b925050600181019050610595565b5085935050505092915050565b600060208201905081810360008301526105e98184610571565b905092915050565b600067ffffffffffffffff82111561060c5761060b610390565b5b602082029050602081019050919050565b600080fd5b61062b81610530565b811461063657600080fd5b50565b60008135905061064881610622565b92915050565b600061066161065c846105f1565b6103f0565b905080838252602082019050602084028301858111156106845761068361061d565b5b835b818110156106ad57806106998882610639565b845260208401935050602081019050610686565b5050509392505050565b600082601f8301126106cc576106cb610375565b5b81356106dc84826020860161064e565b91505092915050565b600080604083850312156106fc576106fb61036b565b5b600083013567ffffffffffffffff81111561071a57610719610370565b5b6107268582860161048d565b925050602083013567ffffffffffffffff81111561074757610746610370565b5b610753858286016106b7565b9150509250929050565b600081519050919050565b600082825260208201905092915050565b6000819050602082019050919050565b600081519050919050565b600082825260208201905092915050565b60005b838110156107c35780820151818401526020810190506107a8565b60008484015250505050565b60006107da82610789565b6107e48185610794565b93506107f48185602086016107a5565b6107fd8161037f565b840191505092915050565b600061081483836107cf565b905092915050565b6000602082019050919050565b60006108348261075d565b61083e8185610768565b93508360208202850161085085610779565b8060005b8581101561088c578484038952815161086d8582610808565b94506108788361081c565b925060208a01995050600181019050610854565b50829750879550505050505092915050565b600060208201905081810360008301526108b88184610829565b905092915050565b600081905092915050565b60006108d682610789565b6108e081856108c0565b93506108f08185602086016107a5565b80840191505092915050565b600061090882846108cb565b915081905092915050565b7f4e487b7100000000000000000000000000000000000000000000000000000000600052602260045260246000fd5b6000600282049050600182168061095a57607f821691505b60208210810361096d5761096c610913565b5b50919050565b60008190508160005260206000209050919050565b60006020601f8301049050919050565b600082821b905092915050565b6000600883026109d57fffffffffffffffffffffffffffffffffffffffffffffffffffffffffffffffff82610998565b6109df8683610998565b95508019841693508086168417925050509392505050565b6000819050919050565b6000819050919050565b6000610a26610a21610a1c846109f7565b610a01565b6109f7565b9050919050565b6000819050919050565b610a4083610a0b565b610a54610a4c82610a2d565b8484546109a5565b825550505050565b600090565b610a69610a5c565b610a74818484610a37565b505050565b5b81811015610a9857610a8d600082610a61565b600181019050610a7a565b5050565b601f821115610add57610aae81610973565b610ab784610988565b81016020851015610ac6578190505b610ada610ad285610988565b830182610a79565b50505b505050565b600082821c905092915050565b6000610b0060001984600802610ae2565b1980831691505092915050565b6000610b198383610aef565b9150826002028217905092915050565b610b3282610789565b67ffffffffffffffff811115610b4b57610b4a610390565b5b610b558254610942565b610b60828285610a9c565b600060209050601f831160018114610b935760008415610b81578287015190505b610b8b8582610b0d565b865550610bf3565b601f198416610ba186610973565b60005b82811015610bc957848901518255600182019150602085019450602081019050610ba4565b86831015610be65784890151610be2601f891682610aef565b8355505b6001600288020188555050505b50505050505056fea264697066735822122023b5bfe87d89a85a9a639ab001c864bb66f6f87ed049cf9d29f87ee6ef5a354d64736f6c63430008110033",
  "linkReferences": {},
  "deployedLinkReferences": {}
}