{
  "_format": "hh-sol-artifact-1",
  "contractName": "Index",
  "sourceName": "contracts/Index.sol",
  "abi": [
    {
      "inputs": [
        {
          "internalType": "string",
          "name": "key",
          "type": "string"
        },
        {
          "internalType": "string[]",
          "name": "hash",
          "type": "string[]"
        }
      ],
      "name": "add",
      "outputs": [],
      "stateMutability": "nonpayable",
      "type": "function"
    },
    {
      "inputs": [
        {
          "internalType": "string",
          "name": "key",
          "type": "string"
        }
      ],
      "name": "get",
      "outputs": [
        {
          "internalType": "string[]",
          "name": "",
          "type": "string[]"
        }
      ],
      "stateMutability": "view",
      "type": "function"
    },
    {
      "inputs": [],
      "name": "getTok",
      "outputs": [
        {
          "internalType": "string[]",
          "name": "",
          "type": "string[]"
        }
      ],
      "stateMutability": "view",
      "type": "function"
    }
  ],
  "bytecode": "0x608060405234801561001057600080fd5b50610b9b806100206000396000f3fe608060405234801561001057600080fd5b50600436106100415760003560e01c80635b1ed3c614610046578063693ec85e146100625780639e2e939314610092575b600080fd5b610060600480360381019061005b9190610606565b6100b0565b005b61007c6004803603810190610077919061067e565b61011c565b6040516100899190610808565b60405180910390f35b61009a610213565b6040516100a79190610808565b60405180910390f35b806000836040516100c19190610866565b908152602001604051809103902090805190602001906100e29291906102ec565b506001829080600181540180825580915050600190039060005260206000200160009091909190915090816101179190610a93565b505050565b606060008260405161012e9190610866565b9081526020016040518091039020805480602002602001604051908101604052809291908181526020016000905b8282101561020857838290600052602060002001805461017b906108ac565b80601f01602080910402602001604051908101604052809291908181526020018280546101a7906108ac565b80156101f45780601f106101c9576101008083540402835291602001916101f4565b820191906000526020600020905b8154815290600101906020018083116101d757829003601f168201915b50505050508152602001906001019061015c565b505050509050919050565b60606001805480602002602001604051908101604052809291908181526020016000905b828210156102e3578382906000526020600020018054610256906108ac565b80601f0160208091040260200160405190810160405280929190818152602001828054610282906108ac565b80156102cf5780601f106102a4576101008083540402835291602001916102cf565b820191906000526020600020905b8154815290600101906020018083116102b257829003601f168201915b505050505081526020019060010190610237565b50505050905090565b828054828255906000526020600020908101928215610334579160200282015b828111156103335782518290816103239190610a93565b509160200191906001019061030c565b5b5090506103419190610345565b5090565b5b80821115610365576000818161035c9190610369565b50600101610346565b5090565b508054610375906108ac565b6000825580601f1061038757506103a6565b601f0160209004906000526020600020908101906103a591906103a9565b5b50565b5b808211156103c25760008160009055506001016103aa565b5090565b6000604051905090565b600080fd5b600080fd5b600080fd5b600080fd5b6000601f19601f8301169050919050565b7f4e487b7100000000000000000000000000000000000000000000000000000000600052604160045260246000fd5b61042d826103e4565b810181811067ffffffffffffffff8211171561044c5761044b6103f5565b5b80604052505050565b600061045f6103c6565b905061046b8282610424565b919050565b600067ffffffffffffffff82111561048b5761048a6103f5565b5b610494826103e4565b9050602081019050919050565b82818337600083830152505050565b60006104c36104be84610470565b610455565b9050828152602081018484840111156104df576104de6103df565b5b6104ea8482856104a1565b509392505050565b600082601f830112610507576105066103da565b5b81356105178482602086016104b0565b91505092915050565b600067ffffffffffffffff82111561053b5761053a6103f5565b5b602082029050602081019050919050565b600080fd5b600061056461055f84610520565b610455565b905080838252602082019050602084028301858111156105875761058661054c565b5b835b818110156105ce57803567ffffffffffffffff8111156105ac576105ab6103da565b5b8086016105b989826104f2565b85526020850194505050602081019050610589565b5050509392505050565b600082601f8301126105ed576105ec6103da565b5b81356105fd848260208601610551565b91505092915050565b6000806040838503121561061d5761061c6103d0565b5b600083013567ffffffffffffffff81111561063b5761063a6103d5565b5b610647858286016104f2565b925050602083013567ffffffffffffffff811115610668576106676103d5565b5b610674858286016105d8565b9150509250929050565b600060208284031215610694576106936103d0565b5b600082013567ffffffffffffffff8111156106b2576106b16103d5565b5b6106be848285016104f2565b91505092915050565b600081519050919050565b600082825260208201905092915050565b6000819050602082019050919050565b600081519050919050565b600082825260208201905092915050565b60005b8381101561072d578082015181840152602081019050610712565b60008484015250505050565b6000610744826106f3565b61074e81856106fe565b935061075e81856020860161070f565b610767816103e4565b840191505092915050565b600061077e8383610739565b905092915050565b6000602082019050919050565b600061079e826106c7565b6107a881856106d2565b9350836020820285016107ba856106e3565b8060005b858110156107f657848403895281516107d78582610772565b94506107e283610786565b925060208a019950506001810190506107be565b50829750879550505050505092915050565b600060208201905081810360008301526108228184610793565b905092915050565b600081905092915050565b6000610840826106f3565b61084a818561082a565b935061085a81856020860161070f565b80840191505092915050565b60006108728284610835565b915081905092915050565b7f4e487b7100000000000000000000000000000000000000000000000000000000600052602260045260246000fd5b600060028204905060018216806108c457607f821691505b6020821081036108d7576108d661087d565b5b50919050565b60008190508160005260206000209050919050565b60006020601f8301049050919050565b600082821b905092915050565b60006008830261093f7fffffffffffffffffffffffffffffffffffffffffffffffffffffffffffffffff82610902565b6109498683610902565b95508019841693508086168417925050509392505050565b6000819050919050565b6000819050919050565b600061099061098b61098684610961565b61096b565b610961565b9050919050565b6000819050919050565b6109aa83610975565b6109be6109b682610997565b84845461090f565b825550505050565b600090565b6109d36109c6565b6109de8184846109a1565b505050565b5b81811015610a02576109f76000826109cb565b6001810190506109e4565b5050565b601f821115610a4757610a18816108dd565b610a21846108f2565b81016020851015610a30578190505b610a44610a3c856108f2565b8301826109e3565b50505b505050565b600082821c905092915050565b6000610a6a60001984600802610a4c565b1980831691505092915050565b6000610a838383610a59565b9150826002028217905092915050565b610a9c826106f3565b67ffffffffffffffff811115610ab557610ab46103f5565b5b610abf82546108ac565b610aca828285610a06565b600060209050601f831160018114610afd5760008415610aeb578287015190505b610af58582610a77565b865550610b5d565b601f198416610b0b866108dd565b60005b82811015610b3357848901518255600182019150602085019450602081019050610b0e565b86831015610b505784890151610b4c601f891682610a59565b8355505b6001600288020188555050505b50505050505056fea2646970667358221220628b6b25b376fc0d50dfd74c4b6c200f04093b6e038e0fb02728709a84fd866a64736f6c63430008110033",
  "linkReferences": {},
  "deployedLinkReferences": {}
}